{
  "_format": "hh-sol-artifact-1",
  "contractName": "Register2",
  "sourceName": "contracts/Register2.sol",
  "abi": [
    {
      "anonymous": false,
      "inputs": [
        {
          "indexed": false,
          "internalType": "uint256",
          "name": "plotNumber",
          "type": "uint256"
        },
        {
          "components": [
            {
              "internalType": "address",
              "name": "owner",
              "type": "address"
            },
            {
              "internalType": "uint256",
              "name": "price",
              "type": "uint256"
            },
            {
              "internalType": "uint256",
              "name": "askingPrice",
              "type": "uint256"
            }
          ],
          "indexed": false,
          "internalType": "struct Register2.RegistrationInfo[]",
          "name": "newArray",
          "type": "tuple[]"
        }
      ],
      "name": "ChangeAskingPrice",
      "type": "event"
    },
    {
      "anonymous": false,
      "inputs": [
        {
          "components": [
            {
              "internalType": "uint256",
              "name": "plotNumber",
              "type": "uint256"
            },
            {
              "components": [
                {
                  "internalType": "address",
                  "name": "owner",
                  "type": "address"
                },
                {
                  "internalType": "uint256",
                  "name": "price",
                  "type": "uint256"
                },
                {
                  "internalType": "uint256",
                  "name": "askingPrice",
                  "type": "uint256"
                }
              ],
              "internalType": "struct Register2.RegistrationInfo[]",
              "name": "transactions",
              "type": "tuple[]"
            }
          ],
          "indexed": false,
          "internalType": "struct Register2.RegistrationInfoReturn[]",
          "name": "array",
          "type": "tuple[]"
        }
      ],
      "name": "NewRegistration",
      "type": "event"
    },
    {
      "anonymous": false,
      "inputs": [
        {
          "indexed": false,
          "internalType": "uint256",
          "name": "plotNumber",
          "type": "uint256"
        },
        {
          "components": [
            {
              "internalType": "address",
              "name": "owner",
              "type": "address"
            },
            {
              "internalType": "uint256",
              "name": "price",
              "type": "uint256"
            },
            {
              "internalType": "uint256",
              "name": "askingPrice",
              "type": "uint256"
            }
          ],
          "indexed": false,
          "internalType": "struct Register2.RegistrationInfo[]",
          "name": "newArray",
          "type": "tuple[]"
        }
      ],
      "name": "OwnershipTransfered",
      "type": "event"
    },
    {
      "inputs": [
        {
          "internalType": "uint256",
          "name": "plotNumber",
          "type": "uint256"
        },
        {
          "internalType": "uint256",
          "name": "newAskingPrice",
          "type": "uint256"
        }
      ],
      "name": "changeAskingPrice",
      "outputs": [],
      "stateMutability": "nonpayable",
      "type": "function"
    },
    {
      "inputs": [
        {
          "internalType": "uint256",
          "name": "plotNumber",
          "type": "uint256"
        }
      ],
      "name": "checkRegistration",
      "outputs": [
        {
          "components": [
            {
              "internalType": "address",
              "name": "owner",
              "type": "address"
            },
            {
              "internalType": "uint256",
              "name": "price",
              "type": "uint256"
            },
            {
              "internalType": "uint256",
              "name": "askingPrice",
              "type": "uint256"
            }
          ],
          "internalType": "struct Register2.RegistrationInfo[]",
          "name": "info",
          "type": "tuple[]"
        }
      ],
      "stateMutability": "view",
      "type": "function"
    },
    {
      "inputs": [],
      "name": "getRegistrationList",
      "outputs": [
        {
          "components": [
            {
              "internalType": "uint256",
              "name": "plotNumber",
              "type": "uint256"
            },
            {
              "components": [
                {
                  "internalType": "address",
                  "name": "owner",
                  "type": "address"
                },
                {
                  "internalType": "uint256",
                  "name": "price",
                  "type": "uint256"
                },
                {
                  "internalType": "uint256",
                  "name": "askingPrice",
                  "type": "uint256"
                }
              ],
              "internalType": "struct Register2.RegistrationInfo[]",
              "name": "transactions",
              "type": "tuple[]"
            }
          ],
          "internalType": "struct Register2.RegistrationInfoReturn[]",
          "name": "data",
          "type": "tuple[]"
        }
      ],
      "stateMutability": "view",
      "type": "function"
    },
    {
      "inputs": [
        {
          "internalType": "uint256",
          "name": "plotNumber",
          "type": "uint256"
        },
        {
          "internalType": "uint256",
          "name": "price",
          "type": "uint256"
        }
      ],
      "name": "registerPlot",
      "outputs": [],
      "stateMutability": "nonpayable",
      "type": "function"
    },
    {
      "inputs": [
        {
          "internalType": "uint256",
          "name": "plotNumber",
          "type": "uint256"
        }
      ],
      "name": "transferOwnership",
      "outputs": [],
      "stateMutability": "payable",
      "type": "function"
    }
  ],
  "bytecode": "0x608060405234801561001057600080fd5b50611421806100206000396000f3fe60806040526004361061004a5760003560e01c80633a61ae9a1461004f57806397a67ed914610078578063b1533007146100b5578063c3b23d30146100de578063d23e848914610109575b600080fd5b34801561005b57600080fd5b5061007660048036038101906100719190610c9d565b610125565b005b34801561008457600080fd5b5061009f600480360381019061009a9190610c74565b6102e2565b6040516100ac9190611047565b60405180910390f35b3480156100c157600080fd5b506100dc60048036038101906100d79190610c9d565b6103bd565b005b3480156100ea57600080fd5b506100f3610577565b6040516101009190611025565b60405180910390f35b610123600480360381019061011e9190610c74565b6107df565b005b60008060008481526020019081526020016000209050806001828054905061014d91906111ba565b81548110610184577f4e487b7100000000000000000000000000000000000000000000000000000000600052603260045260246000fd5b906000526020600020906003020160000160009054906101000a900473ffffffffffffffffffffffffffffffffffffffff1673ffffffffffffffffffffffffffffffffffffffff163373ffffffffffffffffffffffffffffffffffffffff1614610223576040517f08c379a000000000000000000000000000000000000000000000000000000000815260040161021a90611069565b60405180910390fd5b81816001838054905061023691906111ba565b8154811061026d577f4e487b7100000000000000000000000000000000000000000000000000000000600052603260045260246000fd5b906000526020600020906003020160020181905550806000808581526020019081526020016000209080546102a3929190610b24565b507fbda165472d1da1d43b09fd2faa310f876ee37f4471ec32c9bfa9969f4617c3b383826040516102d59291906110c9565b60405180910390a1505050565b6060600080838152602001908152602001600020805480602002602001604051908101604052809291908181526020016000905b828210156103b257838290600052602060002090600302016040518060600160405290816000820160009054906101000a900473ffffffffffffffffffffffffffffffffffffffff1673ffffffffffffffffffffffffffffffffffffffff1673ffffffffffffffffffffffffffffffffffffffff1681526020016001820154815260200160028201548152505081526020019060010190610316565b505050509050919050565b60008060008481526020019081526020016000208054905014610415576040517f08c379a000000000000000000000000000000000000000000000000000000000815260040161040c90611089565b60405180910390fd5b600060405180606001604052803373ffffffffffffffffffffffffffffffffffffffff168152602001838152602001838152509050600080600085815260200190815260200160002090508082908060018154018082558091505060019003906000526020600020906003020160009091909190915060008201518160000160006101000a81548173ffffffffffffffffffffffffffffffffffffffff021916908373ffffffffffffffffffffffffffffffffffffffff1602179055506020820151816001015560408201518160020155505080600080868152602001908152602001600020908054610509929190610b24565b5060018490806001815401808255809150506001900390600052602060002001600090919091909150557f0e33848612e711bf1713d926127adc7e8b1c787e7085ac19ffad375a7948952661055c610577565b6040516105699190611025565b60405180910390a150505050565b6060600060018054905067ffffffffffffffff8111156105c0577f4e487b7100000000000000000000000000000000000000000000000000000000600052604160045260246000fd5b6040519080825280602002602001820160405280156105f957816020015b6105e6610bf7565b8152602001906001900390816105de5790505b50905060005b6001805490508110156107d75760008060006001848154811061064b577f4e487b7100000000000000000000000000000000000000000000000000000000600052603260045260246000fd5b9060005260206000200154815260200190815260200160002090506040518060400160405280600184815481106106ab577f4e487b7100000000000000000000000000000000000000000000000000000000600052603260045260246000fd5b9060005260206000200154815260200182805480602002602001604051908101604052809291908181526020016000905b8282101561077857838290600052602060002090600302016040518060600160405290816000820160009054906101000a900473ffffffffffffffffffffffffffffffffffffffff1673ffffffffffffffffffffffffffffffffffffffff1673ffffffffffffffffffffffffffffffffffffffff16815260200160018201548152602001600282015481525050815260200190600101906106dc565b505050508152508383815181106107b8577f4e487b7100000000000000000000000000000000000000000000000000000000600052603260045260246000fd5b60200260200101819052505080806107cf90611288565b9150506105ff565b508091505090565b60008060008381526020019081526020016000209050806001828054905061080791906111ba565b8154811061083e577f4e487b7100000000000000000000000000000000000000000000000000000000600052603260045260246000fd5b906000526020600020906003020160020154341015610892576040517f08c379a0000000000000000000000000000000000000000000000000000000008152600401610889906110a9565b60405180910390fd5b600060405180606001604052803373ffffffffffffffffffffffffffffffffffffffff16815260200183600185805490506108cd91906111ba565b81548110610904577f4e487b7100000000000000000000000000000000000000000000000000000000600052603260045260246000fd5b9060005260206000209060030201600201548152602001836001858054905061092d91906111ba565b81548110610964577f4e487b7100000000000000000000000000000000000000000000000000000000600052603260045260246000fd5b9060005260206000209060030201600201548152509050816001838054905061098d91906111ba565b815481106109c4577f4e487b7100000000000000000000000000000000000000000000000000000000600052603260045260246000fd5b906000526020600020906003020160000160009054906101000a900473ffffffffffffffffffffffffffffffffffffffff1673ffffffffffffffffffffffffffffffffffffffff166108fc349081150290604051600060405180830381858888f19350505050158015610a3b573d6000803e3d6000fd5b508181908060018154018082558091505060019003906000526020600020906003020160009091909190915060008201518160000160006101000a81548173ffffffffffffffffffffffffffffffffffffffff021916908373ffffffffffffffffffffffffffffffffffffffff1602179055506020820151816001015560408201518160020155505081600080858152602001908152602001600020908054610ae5929190610b24565b507f67601a8ae2a66bbcda253dda251a7fedf78bd1fefe2e780ed1c3df35b784a7db8383604051610b179291906110c9565b60405180910390a1505050565b828054828255906000526020600020906003028101928215610be65760005260206000209160030282015b82811115610be55782826000820160009054906101000a900473ffffffffffffffffffffffffffffffffffffffff168160000160006101000a81548173ffffffffffffffffffffffffffffffffffffffff021916908373ffffffffffffffffffffffffffffffffffffffff1602179055506001820154816001015560028201548160020155505091600301919060030190610b4f565b5b509050610bf39190610c11565b5090565b604051806040016040528060008152602001606081525090565b5b80821115610c5b57600080820160006101000a81549073ffffffffffffffffffffffffffffffffffffffff02191690556001820160009055600282016000905550600301610c12565b5090565b600081359050610c6e816113d4565b92915050565b600060208284031215610c8657600080fd5b6000610c9484828501610c5f565b91505092915050565b60008060408385031215610cb057600080fd5b6000610cbe85828601610c5f565b9250506020610ccf85828601610c5f565b9150509250929050565b6000610ce58383610f23565b905092915050565b6000610cf98383610f60565b60608301905092915050565b6000610d118383610fa2565b60608301905092915050565b610d2681611218565b82525050565b6000610d378261112e565b610d418185611176565b935083602082028501610d53856110f9565b8060005b85811015610d8f5784840389528151610d708582610cd9565b9450610d7b8361114f565b925060208a01995050600181019050610d57565b50829750879550505050505092915050565b6000610dac82611139565b610db68185611187565b9350610dc183611109565b8060005b83811015610df2578151610dd98882610ced565b9750610de48361115c565b925050600181019050610dc5565b5085935050505092915050565b6000610e0a82611139565b610e148185611198565b9350610e1f83611109565b8060005b83811015610e50578151610e378882610ced565b9750610e428361115c565b925050600181019050610e23565b5085935050505092915050565b6000610e6882611144565b610e728185611198565b9350610e7d83611119565b8060005b83811015610ead5781610e948882610d05565b9750610e9f83611169565b925050600181019050610e81565b5085935050505092915050565b6000610ec7602a836111a9565b9150610ed28261130d565b604082019050919050565b6000610eea6018836111a9565b9150610ef58261135c565b602082019050919050565b6000610f0d6023836111a9565b9150610f1882611385565b604082019050919050565b6000604083016000830151610f3b6000860182611007565b5060208301518482036020860152610f538282610da1565b9150508091505092915050565b606082016000820151610f766000850182610d1d565b506020820151610f896020850182611007565b506040820151610f9c6040850182611007565b50505050565b606082016000808301549050610fb781611254565b610fc46000860182610d1d565b5060018301549050610fd58161126e565b610fe26020860182611007565b5060028301549050610ff38161126e565b6110006040860182611007565b5050505050565b6110108161124a565b82525050565b61101f8161124a565b82525050565b6000602082019050818103600083015261103f8184610d2c565b905092915050565b600060208201905081810360008301526110618184610dff565b905092915050565b6000602082019050818103600083015261108281610eba565b9050919050565b600060208201905081810360008301526110a281610edd565b9050919050565b600060208201905081810360008301526110c281610f00565b9050919050565b60006040820190506110de6000830185611016565b81810360208301526110f08184610e5d565b90509392505050565b6000819050602082019050919050565b6000819050602082019050919050565b60008190508160005260206000209050919050565b600081519050919050565b600081519050919050565b600081549050919050565b6000602082019050919050565b6000602082019050919050565b6000600382019050919050565b600082825260208201905092915050565b600082825260208201905092915050565b600082825260208201905092915050565b600082825260208201905092915050565b60006111c58261124a565b91506111d08361124a565b9250828210156111e3576111e26112d1565b5b828203905092915050565b600073ffffffffffffffffffffffffffffffffffffffff82169050919050565b6000819050919050565b60006112238261122a565b9050919050565b600073ffffffffffffffffffffffffffffffffffffffff82169050919050565b6000819050919050565b600061126761126283611300565b6111ee565b9050919050565b600061128161127c83611300565b61120e565b9050919050565b60006112938261124a565b91507fffffffffffffffffffffffffffffffffffffffffffffffffffffffffffffffff8214156112c6576112c56112d1565b5b600182019050919050565b7f4e487b7100000000000000000000000000000000000000000000000000000000600052601160045260246000fd5b60008160001c9050919050565b7f4f6e6c7920746865206f776e65722063616e206368616e67652074686520617360008201527f6b696e6720507269636500000000000000000000000000000000000000000000602082015250565b7f506c6f7420616c726561647920726567697374657265642e0000000000000000600082015250565b7f506c656173652070617920696e2066756c6c20746f206275792074686520706c60008201527f6f742e0000000000000000000000000000000000000000000000000000000000602082015250565b6113dd8161124a565b81146113e857600080fd5b5056fea2646970667358221220feba49912642da431fa555e17de2c77b704e62656f50b546b18e2c875438f22364736f6c63430008020033",
  "linkReferences": {},
  "deployedLinkReferences": {}
}