{
  "_format": "hh-sol-artifact-1",
  "contractName": "Register",
  "sourceName": "contracts/Register.sol",
  "abi": [
    {
      "anonymous": false,
      "inputs": [
        {
          "indexed": false,
          "internalType": "uint256",
          "name": "plotNumber",
          "type": "uint256"
        },
        {
          "components": [
            {
              "internalType": "address",
              "name": "owner",
              "type": "address"
            },
            {
              "internalType": "uint256",
              "name": "price",
              "type": "uint256"
            },
            {
              "internalType": "uint256",
              "name": "askingPrice",
              "type": "uint256"
            }
          ],
          "indexed": false,
          "internalType": "struct Register.RegistrationInfo[]",
          "name": "newArray",
          "type": "tuple[]"
        }
      ],
      "name": "ChangeAskingPrice",
      "type": "event"
    },
    {
      "anonymous": false,
      "inputs": [
        {
          "components": [
            {
              "internalType": "uint256",
              "name": "plotNumber",
              "type": "uint256"
            },
            {
              "components": [
                {
                  "internalType": "address",
                  "name": "owner",
                  "type": "address"
                },
                {
                  "internalType": "uint256",
                  "name": "price",
                  "type": "uint256"
                },
                {
                  "internalType": "uint256",
                  "name": "askingPrice",
                  "type": "uint256"
                }
              ],
              "internalType": "struct Register.RegistrationInfo[]",
              "name": "transactions",
              "type": "tuple[]"
            }
          ],
          "indexed": false,
          "internalType": "struct Register.RegistrationInfoReturn[]",
          "name": "array",
          "type": "tuple[]"
        }
      ],
      "name": "NewRegistration",
      "type": "event"
    },
    {
      "anonymous": false,
      "inputs": [
        {
          "indexed": false,
          "internalType": "uint256",
          "name": "plotNumber",
          "type": "uint256"
        },
        {
          "components": [
            {
              "internalType": "address",
              "name": "owner",
              "type": "address"
            },
            {
              "internalType": "uint256",
              "name": "price",
              "type": "uint256"
            },
            {
              "internalType": "uint256",
              "name": "askingPrice",
              "type": "uint256"
            }
          ],
          "indexed": false,
          "internalType": "struct Register.RegistrationInfo[]",
          "name": "newArray",
          "type": "tuple[]"
        }
      ],
      "name": "OwnershipTransfered",
      "type": "event"
    },
    {
      "inputs": [
        {
          "internalType": "uint256",
          "name": "plotNumber",
          "type": "uint256"
        },
        {
          "internalType": "uint256",
          "name": "newAskingPrice",
          "type": "uint256"
        }
      ],
      "name": "changeAskingPrice",
      "outputs": [],
      "stateMutability": "nonpayable",
      "type": "function"
    },
    {
      "inputs": [
        {
          "internalType": "uint256",
          "name": "plotNumber",
          "type": "uint256"
        }
      ],
      "name": "checkRegistration",
      "outputs": [
        {
          "components": [
            {
              "internalType": "address",
              "name": "owner",
              "type": "address"
            },
            {
              "internalType": "uint256",
              "name": "price",
              "type": "uint256"
            },
            {
              "internalType": "uint256",
              "name": "askingPrice",
              "type": "uint256"
            }
          ],
          "internalType": "struct Register.RegistrationInfo[]",
          "name": "info",
          "type": "tuple[]"
        }
      ],
      "stateMutability": "view",
      "type": "function"
    },
    {
      "inputs": [],
      "name": "getRegistrationList",
      "outputs": [
        {
          "components": [
            {
              "internalType": "uint256",
              "name": "plotNumber",
              "type": "uint256"
            },
            {
              "components": [
                {
                  "internalType": "address",
                  "name": "owner",
                  "type": "address"
                },
                {
                  "internalType": "uint256",
                  "name": "price",
                  "type": "uint256"
                },
                {
                  "internalType": "uint256",
                  "name": "askingPrice",
                  "type": "uint256"
                }
              ],
              "internalType": "struct Register.RegistrationInfo[]",
              "name": "transactions",
              "type": "tuple[]"
            }
          ],
          "internalType": "struct Register.RegistrationInfoReturn[]",
          "name": "data",
          "type": "tuple[]"
        }
      ],
      "stateMutability": "view",
      "type": "function"
    },
    {
      "inputs": [
        {
          "internalType": "uint256",
          "name": "plotNumber",
          "type": "uint256"
        },
        {
          "internalType": "uint256",
          "name": "price",
          "type": "uint256"
        }
      ],
      "name": "registerPlot",
      "outputs": [],
      "stateMutability": "nonpayable",
      "type": "function"
    },
    {
      "inputs": [
        {
          "internalType": "uint256",
          "name": "plotNumber",
          "type": "uint256"
        }
      ],
      "name": "transferOwnership",
      "outputs": [],
      "stateMutability": "payable",
      "type": "function"
    }
  ],
  "bytecode": "0x608060405234801561001057600080fd5b50611295806100206000396000f3fe60806040526004361061004a5760003560e01c80633a61ae9a1461004f57806397a67ed914610078578063b1533007146100b5578063c3b23d30146100de578063d23e848914610109575b600080fd5b34801561005b57600080fd5b5061007660048036038101906100719190610c0f565b610125565b005b34801561008457600080fd5b5061009f600480360381019061009a9190610be6565b6102e2565b6040516100ac9190610f73565b60405180910390f35b3480156100c157600080fd5b506100dc60048036038101906100d79190610c0f565b6103bd565b005b3480156100ea57600080fd5b506100f361051f565b6040516101009190610f51565b60405180910390f35b610123600480360381019061011e9190610be6565b610787565b005b60008060008481526020019081526020016000209050806001828054905061014d91906110a6565b81548110610184577f4e487b7100000000000000000000000000000000000000000000000000000000600052603260045260246000fd5b906000526020600020906003020160000160009054906101000a900473ffffffffffffffffffffffffffffffffffffffff1673ffffffffffffffffffffffffffffffffffffffff163373ffffffffffffffffffffffffffffffffffffffff1614610223576040517f08c379a000000000000000000000000000000000000000000000000000000000815260040161021a90610f95565b60405180910390fd5b81816001838054905061023691906110a6565b8154811061026d577f4e487b7100000000000000000000000000000000000000000000000000000000600052603260045260246000fd5b906000526020600020906003020160020181905550806000808581526020019081526020016000209080546102a3929190610a96565b507fbda165472d1da1d43b09fd2faa310f876ee37f4471ec32c9bfa9969f4617c3b383826040516102d5929190610fb5565b60405180910390a1505050565b6060600080838152602001908152602001600020805480602002602001604051908101604052809291908181526020016000905b828210156103b257838290600052602060002090600302016040518060600160405290816000820160009054906101000a900473ffffffffffffffffffffffffffffffffffffffff1673ffffffffffffffffffffffffffffffffffffffff1673ffffffffffffffffffffffffffffffffffffffff1681526020016001820154815260200160028201548152505081526020019060010190610316565b505050509050919050565b600060405180606001604052803373ffffffffffffffffffffffffffffffffffffffff168152602001838152602001838152509050600080600085815260200190815260200160002090508082908060018154018082558091505060019003906000526020600020906003020160009091909190915060008201518160000160006101000a81548173ffffffffffffffffffffffffffffffffffffffff021916908373ffffffffffffffffffffffffffffffffffffffff16021790555060208201518160010155604082015181600201555050806000808681526020019081526020016000209080546104b1929190610a96565b5060018490806001815401808255809150506001900390600052602060002001600090919091909150557f0e33848612e711bf1713d926127adc7e8b1c787e7085ac19ffad375a7948952661050461051f565b6040516105119190610f51565b60405180910390a150505050565b6060600060018054905067ffffffffffffffff811115610568577f4e487b7100000000000000000000000000000000000000000000000000000000600052604160045260246000fd5b6040519080825280602002602001820160405280156105a157816020015b61058e610b69565b8152602001906001900390816105865790505b50905060005b60018054905081101561077f576000806000600184815481106105f3577f4e487b7100000000000000000000000000000000000000000000000000000000600052603260045260246000fd5b906000526020600020015481526020019081526020016000209050604051806040016040528060018481548110610653577f4e487b7100000000000000000000000000000000000000000000000000000000600052603260045260246000fd5b9060005260206000200154815260200182805480602002602001604051908101604052809291908181526020016000905b8282101561072057838290600052602060002090600302016040518060600160405290816000820160009054906101000a900473ffffffffffffffffffffffffffffffffffffffff1673ffffffffffffffffffffffffffffffffffffffff1673ffffffffffffffffffffffffffffffffffffffff1681526020016001820154815260200160028201548152505081526020019060010190610684565b50505050815250838381518110610760577f4e487b7100000000000000000000000000000000000000000000000000000000600052603260045260246000fd5b602002602001018190525050808061077790611174565b9150506105a7565b508091505090565b6000806000838152602001908152602001600020905080600182805490506107af91906110a6565b815481106107e6577f4e487b7100000000000000000000000000000000000000000000000000000000600052603260045260246000fd5b90600052602060002090600302016002015434101561080457600080fd5b600060405180606001604052803373ffffffffffffffffffffffffffffffffffffffff168152602001836001858054905061083f91906110a6565b81548110610876577f4e487b7100000000000000000000000000000000000000000000000000000000600052603260045260246000fd5b9060005260206000209060030201600201548152602001836001858054905061089f91906110a6565b815481106108d6577f4e487b7100000000000000000000000000000000000000000000000000000000600052603260045260246000fd5b906000526020600020906003020160020154815250905081600183805490506108ff91906110a6565b81548110610936577f4e487b7100000000000000000000000000000000000000000000000000000000600052603260045260246000fd5b906000526020600020906003020160000160009054906101000a900473ffffffffffffffffffffffffffffffffffffffff1673ffffffffffffffffffffffffffffffffffffffff166108fc349081150290604051600060405180830381858888f193505050501580156109ad573d6000803e3d6000fd5b508181908060018154018082558091505060019003906000526020600020906003020160009091909190915060008201518160000160006101000a81548173ffffffffffffffffffffffffffffffffffffffff021916908373ffffffffffffffffffffffffffffffffffffffff1602179055506020820151816001015560408201518160020155505081600080858152602001908152602001600020908054610a57929190610a96565b507f67601a8ae2a66bbcda253dda251a7fedf78bd1fefe2e780ed1c3df35b784a7db8383604051610a89929190610fb5565b60405180910390a1505050565b828054828255906000526020600020906003028101928215610b585760005260206000209160030282015b82811115610b575782826000820160009054906101000a900473ffffffffffffffffffffffffffffffffffffffff168160000160006101000a81548173ffffffffffffffffffffffffffffffffffffffff021916908373ffffffffffffffffffffffffffffffffffffffff1602179055506001820154816001015560028201548160020155505091600301919060030190610ac1565b5b509050610b659190610b83565b5090565b604051806040016040528060008152602001606081525090565b5b80821115610bcd57600080820160006101000a81549073ffffffffffffffffffffffffffffffffffffffff02191690556001820160009055600282016000905550600301610b84565b5090565b600081359050610be081611248565b92915050565b600060208284031215610bf857600080fd5b6000610c0684828501610bd1565b91505092915050565b60008060408385031215610c2257600080fd5b6000610c3085828601610bd1565b9250506020610c4185828601610bd1565b9150509250929050565b6000610c578383610e4f565b905092915050565b6000610c6b8383610e8c565b60608301905092915050565b6000610c838383610ece565b60608301905092915050565b610c9881611104565b82525050565b6000610ca98261101a565b610cb38185611062565b935083602082028501610cc585610fe5565b8060005b85811015610d015784840389528151610ce28582610c4b565b9450610ced8361103b565b925060208a01995050600181019050610cc9565b50829750879550505050505092915050565b6000610d1e82611025565b610d288185611073565b9350610d3383610ff5565b8060005b83811015610d64578151610d4b8882610c5f565b9750610d5683611048565b925050600181019050610d37565b5085935050505092915050565b6000610d7c82611025565b610d868185611084565b9350610d9183610ff5565b8060005b83811015610dc2578151610da98882610c5f565b9750610db483611048565b925050600181019050610d95565b5085935050505092915050565b6000610dda82611030565b610de48185611084565b9350610def83611005565b8060005b83811015610e1f5781610e068882610c77565b9750610e1183611055565b925050600181019050610df3565b5085935050505092915050565b6000610e39602a83611095565b9150610e44826111f9565b604082019050919050565b6000604083016000830151610e676000860182610f33565b5060208301518482036020860152610e7f8282610d13565b9150508091505092915050565b606082016000820151610ea26000850182610c8f565b506020820151610eb56020850182610f33565b506040820151610ec86040850182610f33565b50505050565b606082016000808301549050610ee381611140565b610ef06000860182610c8f565b5060018301549050610f018161115a565b610f0e6020860182610f33565b5060028301549050610f1f8161115a565b610f2c6040860182610f33565b5050505050565b610f3c81611136565b82525050565b610f4b81611136565b82525050565b60006020820190508181036000830152610f6b8184610c9e565b905092915050565b60006020820190508181036000830152610f8d8184610d71565b905092915050565b60006020820190508181036000830152610fae81610e2c565b9050919050565b6000604082019050610fca6000830185610f42565b8181036020830152610fdc8184610dcf565b90509392505050565b6000819050602082019050919050565b6000819050602082019050919050565b60008190508160005260206000209050919050565b600081519050919050565b600081519050919050565b600081549050919050565b6000602082019050919050565b6000602082019050919050565b6000600382019050919050565b600082825260208201905092915050565b600082825260208201905092915050565b600082825260208201905092915050565b600082825260208201905092915050565b60006110b182611136565b91506110bc83611136565b9250828210156110cf576110ce6111bd565b5b828203905092915050565b600073ffffffffffffffffffffffffffffffffffffffff82169050919050565b6000819050919050565b600061110f82611116565b9050919050565b600073ffffffffffffffffffffffffffffffffffffffff82169050919050565b6000819050919050565b600061115361114e836111ec565b6110da565b9050919050565b600061116d611168836111ec565b6110fa565b9050919050565b600061117f82611136565b91507fffffffffffffffffffffffffffffffffffffffffffffffffffffffffffffffff8214156111b2576111b16111bd565b5b600182019050919050565b7f4e487b7100000000000000000000000000000000000000000000000000000000600052601160045260246000fd5b60008160001c9050919050565b7f4f6e6c7920746865206f776e65722063616e206368616e67652074686520617360008201527f6b696e6720507269636500000000000000000000000000000000000000000000602082015250565b61125181611136565b811461125c57600080fd5b5056fea264697066735822122037e5b9d16bf6087b2dae1d2d90c117f3daa136206bc2d378e7bc626f3ef9460864736f6c63430008020033",
  "linkReferences": {},
  "deployedLinkReferences": {}
}